{
  "_format": "hh-sol-artifact-1",
  "contractName": "Beam",
  "sourceName": "contracts/Beam.sol",
  "abi": [
    {
      "inputs": [
        {
          "internalType": "address",
          "name": "_usdcToken",
          "type": "address"
        }
      ],
      "stateMutability": "nonpayable",
      "type": "constructor"
    },
    {
      "anonymous": false,
      "inputs": [
        {
          "indexed": true,
          "internalType": "address",
          "name": "previousOwner",
          "type": "address"
        },
        {
          "indexed": true,
          "internalType": "address",
          "name": "newOwner",
          "type": "address"
        }
      ],
      "name": "OwnershipTransferred",
      "type": "event"
    },
    {
      "anonymous": false,
      "inputs": [
        {
          "indexed": false,
          "internalType": "address",
          "name": "account",
          "type": "address"
        }
      ],
      "name": "Paused",
      "type": "event"
    },
    {
      "anonymous": false,
      "inputs": [
        {
          "indexed": true,
          "internalType": "address",
          "name": "sponsor",
          "type": "address"
        },
        {
          "indexed": false,
          "internalType": "uint256",
          "name": "amount",
          "type": "uint256"
        }
      ],
      "name": "SponsorDeposit",
      "type": "event"
    },
    {
      "anonymous": false,
      "inputs": [
        {
          "indexed": true,
          "internalType": "address",
          "name": "sponsor",
          "type": "address"
        },
        {
          "indexed": false,
          "internalType": "uint256",
          "name": "amount",
          "type": "uint256"
        }
      ],
      "name": "SponsorWithdraw",
      "type": "event"
    },
    {
      "anonymous": false,
      "inputs": [
        {
          "indexed": true,
          "internalType": "bytes32",
          "name": "claimHash",
          "type": "bytes32"
        },
        {
          "indexed": true,
          "internalType": "address",
          "name": "recipient",
          "type": "address"
        },
        {
          "indexed": false,
          "internalType": "uint256",
          "name": "amount",
          "type": "uint256"
        }
      ],
      "name": "TransferClaimed",
      "type": "event"
    },
    {
      "anonymous": false,
      "inputs": [
        {
          "indexed": true,
          "internalType": "bytes32",
          "name": "claimHash",
          "type": "bytes32"
        },
        {
          "indexed": true,
          "internalType": "address",
          "name": "sender",
          "type": "address"
        },
        {
          "indexed": true,
          "internalType": "address",
          "name": "recipient",
          "type": "address"
        },
        {
          "indexed": false,
          "internalType": "uint256",
          "name": "amount",
          "type": "uint256"
        }
      ],
      "name": "TransferCreated",
      "type": "event"
    },
    {
      "anonymous": false,
      "inputs": [
        {
          "indexed": false,
          "internalType": "address",
          "name": "account",
          "type": "address"
        }
      ],
      "name": "Unpaused",
      "type": "event"
    },
    {
      "inputs": [
        {
          "internalType": "bytes32",
          "name": "_claimHash",
          "type": "bytes32"
        }
      ],
      "name": "claimTransfer",
      "outputs": [],
      "stateMutability": "nonpayable",
      "type": "function"
    },
    {
      "inputs": [
        {
          "internalType": "address",
          "name": "_recipient",
          "type": "address"
        },
        {
          "internalType": "uint256",
          "name": "_amount",
          "type": "uint256"
        },
        {
          "internalType": "bytes32",
          "name": "_claimHash",
          "type": "bytes32"
        }
      ],
      "name": "createTransfer",
      "outputs": [],
      "stateMutability": "nonpayable",
      "type": "function"
    },
    {
      "inputs": [],
      "name": "emergencyWithdraw",
      "outputs": [],
      "stateMutability": "nonpayable",
      "type": "function"
    },
    {
      "inputs": [
        {
          "internalType": "bytes32",
          "name": "_claimHash",
          "type": "bytes32"
        }
      ],
      "name": "getTransfer",
      "outputs": [
        {
          "internalType": "address",
          "name": "sender",
          "type": "address"
        },
        {
          "internalType": "address",
          "name": "recipient",
          "type": "address"
        },
        {
          "internalType": "uint256",
          "name": "amount",
          "type": "uint256"
        },
        {
          "internalType": "bool",
          "name": "claimed",
          "type": "bool"
        },
        {
          "internalType": "uint256",
          "name": "timestamp",
          "type": "uint256"
        }
      ],
      "stateMutability": "view",
      "type": "function"
    },
    {
      "inputs": [],
      "name": "owner",
      "outputs": [
        {
          "internalType": "address",
          "name": "",
          "type": "address"
        }
      ],
      "stateMutability": "view",
      "type": "function"
    },
    {
      "inputs": [],
      "name": "pause",
      "outputs": [],
      "stateMutability": "nonpayable",
      "type": "function"
    },
    {
      "inputs": [],
      "name": "paused",
      "outputs": [
        {
          "internalType": "bool",
          "name": "",
          "type": "bool"
        }
      ],
      "stateMutability": "view",
      "type": "function"
    },
    {
      "inputs": [],
      "name": "renounceOwnership",
      "outputs": [],
      "stateMutability": "nonpayable",
      "type": "function"
    },
    {
      "inputs": [
        {
          "internalType": "bytes32",
          "name": "_claimHash",
          "type": "bytes32"
        },
        {
          "internalType": "address",
          "name": "_recipient",
          "type": "address"
        }
      ],
      "name": "sponsorClaim",
      "outputs": [],
      "stateMutability": "nonpayable",
      "type": "function"
    },
    {
      "inputs": [
        {
          "internalType": "uint256",
          "name": "_amount",
          "type": "uint256"
        }
      ],
      "name": "sponsorDeposit",
      "outputs": [],
      "stateMutability": "nonpayable",
      "type": "function"
    },
    {
      "inputs": [
        {
          "internalType": "address",
          "name": "",
          "type": "address"
        }
      ],
      "name": "sponsorFunds",
      "outputs": [
        {
          "internalType": "uint256",
          "name": "",
          "type": "uint256"
        }
      ],
      "stateMutability": "view",
      "type": "function"
    },
    {
      "inputs": [
        {
          "internalType": "uint256",
          "name": "_amount",
          "type": "uint256"
        }
      ],
      "name": "sponsorWithdraw",
      "outputs": [],
      "stateMutability": "nonpayable",
      "type": "function"
    },
    {
      "inputs": [
        {
          "internalType": "address",
          "name": "newOwner",
          "type": "address"
        }
      ],
      "name": "transferOwnership",
      "outputs": [],
      "stateMutability": "nonpayable",
      "type": "function"
    },
    {
      "inputs": [
        {
          "internalType": "bytes32",
          "name": "",
          "type": "bytes32"
        }
      ],
      "name": "transfers",
      "outputs": [
        {
          "internalType": "address",
          "name": "sender",
          "type": "address"
        },
        {
          "internalType": "address",
          "name": "recipient",
          "type": "address"
        },
        {
          "internalType": "uint256",
          "name": "amount",
          "type": "uint256"
        },
        {
          "internalType": "bytes32",
          "name": "claimHash",
          "type": "bytes32"
        },
        {
          "internalType": "bool",
          "name": "claimed",
          "type": "bool"
        },
        {
          "internalType": "uint256",
          "name": "timestamp",
          "type": "uint256"
        }
      ],
      "stateMutability": "view",
      "type": "function"
    },
    {
      "inputs": [],
      "name": "unpause",
      "outputs": [],
      "stateMutability": "nonpayable",
      "type": "function"
    },
    {
      "inputs": [],
      "name": "usdcToken",
      "outputs": [
        {
          "internalType": "contract IERC20",
          "name": "",
          "type": "address"
        }
      ],
      "stateMutability": "view",
      "type": "function"
    }
  ],
  "bytecode": "0x60a060405234801561001057600080fd5b5060405161150138038061150183398101604081905261002f916100ad565b600160005561003d3361005b565b6001805460ff60a01b191690556001600160a01b03166080526100dd565b600180546001600160a01b038381166001600160a01b0319831681179093556040519116919082907f8be0079c531659141344cd1fd0a4f28419497f9722a3daafe3b4186f6b6457e090600090a35050565b6000602082840312156100bf57600080fd5b81516001600160a01b03811681146100d657600080fd5b9392505050565b6080516113d86101296000396000818161010a015281816104570152818161063d0152818161080301528181610a9801528181610b9a01528181610c580152610e8001526113d86000f3fe608060405234801561001057600080fd5b50600436106101005760003560e01c80635c975abb116100975780638ffd25c7116100665780638ffd25c71461033e578063db2e21bc14610351578063f1c23d9f14610359578063f2fde38b1461036c57600080fd5b80635c975abb14610300578063715018a61461031d5780638456cb59146103255780638da5cb5b1461032d57600080fd5b80633f4ba83a116100d35780633f4ba83a146102a45780633f514c25146102ac578063423d529b146102da5780635785c18c146102ed57600080fd5b806311eac85514610105578063260958a514610149578063344846dd146102005780633c64f04b14610215575b600080fd5b61012c7f000000000000000000000000000000000000000000000000000000000000000081565b6040516001600160a01b0390911681526020015b60405180910390f35b6101cb61015736600461120f565b600090815260026020818152604092839020835160c08101855281546001600160a01b0390811680835260018401549091169382018490529382015494810185905260038201546060820152600482015460ff1615156080820181905260059092015460a090910181905292949193929091565b604080516001600160a01b0396871681529590941660208601529284019190915215156060830152608082015260a001610140565b61021361020e36600461120f565b61037f565b005b61026a61022336600461120f565b60026020819052600091825260409091208054600182015492820154600383015460048401546005909401546001600160a01b0393841695909316939192909160ff169086565b604080516001600160a01b0397881681529690951660208701529385019290925260608401521515608083015260a082015260c001610140565b61021361052a565b6102cc6102ba366004611244565b60036020526000908152604090205481565b604051908152602001610140565b6102136102e8366004611266565b61053c565b6102136102fb36600461120f565b6107b9565b600154600160a01b900460ff166040519015158152602001610140565b6102136108f0565b610213610902565b6001546001600160a01b031661012c565b61021361034c366004611299565b610912565b610213610b7a565b61021361036736600461120f565b610d24565b61021361037a366004611244565b610f5f565b610387610fd5565b61038f611022565b600081116103b85760405162461bcd60e51b81526004016103af906112c5565b60405180910390fd5b336000908152600360205260409020548111156104175760405162461bcd60e51b815260206004820152601a60248201527f496e73756666696369656e742073706f6e736f722066756e647300000000000060448201526064016103af565b3360009081526003602052604081208054839290610436908490611312565b909155505060405163a9059cbb60e01b8152336004820152602481018290527f00000000000000000000000000000000000000000000000000000000000000006001600160a01b03169063a9059cbb906044016020604051808303816000875af11580156104a8573d6000803e3d6000fd5b505050506040513d601f19601f820116820180604052508101906104cc919061132b565b6104e85760405162461bcd60e51b81526004016103af9061134d565b60405181815233907f919444e319f7a67c3a47ff85a2e2f61c5dd6acacc503e4d45bec35bd6dfd851f9060200160405180910390a26105276001600055565b50565b61053261107b565b61053a6110d5565b565b610544610fd5565b61054c611022565b6001600160a01b0383166105965760405162461bcd60e51b8152602060048201526011602482015270125b9d985b1a59081c9958da5c1a595b9d607a1b60448201526064016103af565b600082116105b65760405162461bcd60e51b81526004016103af906112c5565b6000818152600260205260409020546001600160a01b03161561061b5760405162461bcd60e51b815260206004820152601960248201527f436c61696d206861736820616c7265616479206578697374730000000000000060448201526064016103af565b6040516323b872dd60e01b8152336004820152306024820152604481018390527f00000000000000000000000000000000000000000000000000000000000000006001600160a01b0316906323b872dd906064016020604051808303816000875af115801561068e573d6000803e3d6000fd5b505050506040513d601f19601f820116820180604052508101906106b2919061132b565b6106ce5760405162461bcd60e51b81526004016103af9061134d565b6040805160c081018252338082526001600160a01b038681166020808501828152858701898152606087018981526000608089018181524260a08b019081528c83526002808852928c90209a518b546001600160a01b0319908116918b16919091178c55955160018c0180549097169916989098179094559151918801919091555160038701555160048601805460ff1916911515919091179055915160059094019390935592518581529192909184917f864128263aa9f96da9242ad3707013d1ced4f9bef478f70307d8f89ab5a3cb9c910160405180910390a46107b46001600055565b505050565b6107c1610fd5565b600081116107e15760405162461bcd60e51b81526004016103af906112c5565b6040516323b872dd60e01b8152336004820152306024820152604481018290527f00000000000000000000000000000000000000000000000000000000000000006001600160a01b0316906323b872dd906064016020604051808303816000875af1158015610854573d6000803e3d6000fd5b505050506040513d601f19601f82011682018060405250810190610878919061132b565b6108945760405162461bcd60e51b81526004016103af9061134d565b33600090815260036020526040812080548392906108b3908490611376565b909155505060405181815233907f6ca554966e872c4c9a5e986fc5f312a5c6212f83097be310b707c98ac00b40349060200160405180910390a250565b6108f861107b565b61053a600061112a565b61090a61107b565b61053a61117c565b61091a610fd5565b610922611022565b600082815260026020526040902080546001600160a01b03166109815760405162461bcd60e51b8152602060048201526017602482015276151c985b9cd9995c88191bd95cc81b9bdd08195e1a5cdd604a1b60448201526064016103af565b600481015460ff16156109d15760405162461bcd60e51b8152602060048201526018602482015277151c985b9cd9995c88185b1c9958591e4818db185a5b595960421b60448201526064016103af565b6002810154336000908152600360205260409020541015610a345760405162461bcd60e51b815260206004820152601a60248201527f496e73756666696369656e742073706f6e736f722066756e647300000000000060448201526064016103af565b60048101805460ff1916600117905560028101543360009081526003602052604081208054909190610a67908490611312565b9091555050600281015460405163a9059cbb60e01b81526001600160a01b03848116600483015260248201929092527f00000000000000000000000000000000000000000000000000000000000000009091169063a9059cbb906044016020604051808303816000875af1158015610ae3573d6000803e3d6000fd5b505050506040513d601f19601f82011682018060405250810190610b07919061132b565b610b235760405162461bcd60e51b81526004016103af9061134d565b816001600160a01b0316837f54e6888b93343929fb4c04c33f95a6f9df6993d77d70520adece23bf63fbd9bb8360020154604051610b6391815260200190565b60405180910390a350610b766001600055565b5050565b610b8261107b565b6040516370a0823160e01b81523060048201526000907f00000000000000000000000000000000000000000000000000000000000000006001600160a01b0316906370a0823190602401602060405180830381865afa158015610be9573d6000803e3d6000fd5b505050506040513d601f19601f82011682018060405250810190610c0d9190611389565b905060008111610c565760405162461bcd60e51b81526020600482015260146024820152734e6f2066756e647320746f20776974686472617760601b60448201526064016103af565b7f00000000000000000000000000000000000000000000000000000000000000006001600160a01b031663a9059cbb610c976001546001600160a01b031690565b6040516001600160e01b031960e084901b1681526001600160a01b039091166004820152602481018490526044016020604051808303816000875af1158015610ce4573d6000803e3d6000fd5b505050506040513d601f19601f82011682018060405250810190610d08919061132b565b6105275760405162461bcd60e51b81526004016103af9061134d565b610d2c610fd5565b610d34611022565b600081815260026020526040902080546001600160a01b0316610d935760405162461bcd60e51b8152602060048201526017602482015276151c985b9cd9995c88191bd95cc81b9bdd08195e1a5cdd604a1b60448201526064016103af565b600481015460ff1615610de35760405162461bcd60e51b8152602060048201526018602482015277151c985b9cd9995c88185b1c9958591e4818db185a5b595960421b60448201526064016103af565b60018101546001600160a01b03163314610e3f5760405162461bcd60e51b815260206004820152601760248201527f4e6f7420617574686f72697a656420746f20636c61696d00000000000000000060448201526064016103af565b6004818101805460ff19166001908117909155820154600283015460405163a9059cbb60e01b81526001600160a01b039283169381019390935260248301527f0000000000000000000000000000000000000000000000000000000000000000169063a9059cbb906044016020604051808303816000875af1158015610ec9573d6000803e3d6000fd5b505050506040513d601f19601f82011682018060405250810190610eed919061132b565b610f095760405162461bcd60e51b81526004016103af9061134d565b600181015460028201546040519081526001600160a01b039091169083907f54e6888b93343929fb4c04c33f95a6f9df6993d77d70520adece23bf63fbd9bb9060200160405180910390a3506105276001600055565b610f6761107b565b6001600160a01b038116610fcc5760405162461bcd60e51b815260206004820152602660248201527f4f776e61626c653a206e6577206f776e657220697320746865207a65726f206160448201526564647265737360d01b60648201526084016103af565b6105278161112a565b600154600160a01b900460ff161561053a5760405162461bcd60e51b815260206004820152601060248201526f14185d5cd8589b194e881c185d5cd95960821b60448201526064016103af565b6002600054036110745760405162461bcd60e51b815260206004820152601f60248201527f5265656e7472616e637947756172643a207265656e7472616e742063616c6c0060448201526064016103af565b6002600055565b6001546001600160a01b0316331461053a5760405162461bcd60e51b815260206004820181905260248201527f4f776e61626c653a2063616c6c6572206973206e6f7420746865206f776e657260448201526064016103af565b6110dd6111bf565b6001805460ff60a01b191690557f5db9ee0a495bf2e6ff9c91a7834c1ba4fdd244a5e8aa4e537bd38aeae4b073aa335b6040516001600160a01b03909116815260200160405180910390a1565b600180546001600160a01b038381166001600160a01b0319831681179093556040519116919082907f8be0079c531659141344cd1fd0a4f28419497f9722a3daafe3b4186f6b6457e090600090a35050565b611184610fd5565b6001805460ff60a01b1916600160a01b1790557f62e78cea01bee320cd4e420270b5ea74000d11b0c9f74754ebdbfc544b05a25861110d3390565b600154600160a01b900460ff1661053a5760405162461bcd60e51b815260206004820152601460248201527314185d5cd8589b194e881b9bdd081c185d5cd95960621b60448201526064016103af565b60006020828403121561122157600080fd5b5035919050565b80356001600160a01b038116811461123f57600080fd5b919050565b60006020828403121561125657600080fd5b61125f82611228565b9392505050565b60008060006060848603121561127b57600080fd5b61128484611228565b95602085013595506040909401359392505050565b600080604083850312156112ac57600080fd5b823591506112bc60208401611228565b90509250929050565b6020808252601d908201527f416d6f756e74206d7573742062652067726561746572207468616e2030000000604082015260600190565b634e487b7160e01b600052601160045260246000fd5b81810381811115611325576113256112fc565b92915050565b60006020828403121561133d57600080fd5b8151801515811461125f57600080fd5b6020808252600f908201526e151c985b9cd9995c8819985a5b1959608a1b604082015260600190565b80820180821115611325576113256112fc565b60006020828403121561139b57600080fd5b505191905056fea264697066735822122061b16cbd2cde80f509fa3b51a59775ffcaf2fd4e87ec6981546681e7b1ef7e3264736f6c63430008130033",
  "linkReferences": {},
  "deployedLinkReferences": {}
}